{
  "contractName": "Willdo",
  "abi": [
    {
      "constant": true,
      "inputs": [],
      "name": "choreCount",
      "outputs": [
        {
          "name": "",
          "type": "uint256"
        }
      ],
      "payable": false,
      "stateMutability": "view",
      "type": "function",
      "signature": "0x05bbab13"
    },
    {
      "constant": true,
      "inputs": [
        {
          "name": "",
          "type": "uint256"
        }
      ],
      "name": "chores",
      "outputs": [
        {
          "name": "id",
          "type": "uint256"
        },
        {
          "name": "price",
          "type": "uint256"
        },
        {
          "name": "content",
          "type": "string"
        },
        {
          "name": "startTime",
          "type": "uint256"
        },
        {
          "name": "endTime",
          "type": "uint256"
        },
        {
          "name": "completed",
          "type": "bool"
        }
      ],
      "payable": false,
      "stateMutability": "view",
      "type": "function",
      "signature": "0x4b7ceaa8"
    },
    {
      "payable": true,
      "stateMutability": "payable",
      "type": "fallback"
    },
    {
      "anonymous": false,
      "inputs": [
        {
          "indexed": false,
          "name": "id",
          "type": "uint256"
        },
        {
          "indexed": false,
          "name": "price",
          "type": "uint256"
        },
        {
          "indexed": false,
          "name": "content",
          "type": "string"
        },
        {
          "indexed": false,
          "name": "startTime",
          "type": "uint256"
        },
        {
          "indexed": false,
          "name": "endTime",
          "type": "uint256"
        },
        {
          "indexed": false,
          "name": "completed",
          "type": "bool"
        }
      ],
      "name": "ChoreCreated",
      "type": "event",
      "signature": "0xeb56c786b5b6e514f5c50bde0c0be7aaa0804a681bc0c80191c544c459ad7ebd"
    },
    {
      "anonymous": false,
      "inputs": [
        {
          "indexed": false,
          "name": "id",
          "type": "uint256"
        },
        {
          "indexed": false,
          "name": "completed",
          "type": "bool"
        }
      ],
      "name": "ChoreCompleted",
      "type": "event",
      "signature": "0xefc1e6e6bfe4afeb370dfb8d7c095055ad8a4e98b4ee0e629a464ef1a8bf7f1e"
    },
    {
      "constant": false,
      "inputs": [
        {
          "name": "_content",
          "type": "string"
        },
        {
          "name": "_chorePrice",
          "type": "uint256"
        },
        {
          "name": "_startTime",
          "type": "uint256"
        },
        {
          "name": "_endTime",
          "type": "uint256"
        }
      ],
      "name": "createChore",
      "outputs": [],
      "payable": true,
      "stateMutability": "payable",
      "type": "function",
      "signature": "0x78da7e08"
    },
    {
      "constant": false,
      "inputs": [
        {
          "name": "_id",
          "type": "uint256"
        }
      ],
      "name": "completeChore",
      "outputs": [],
      "payable": false,
      "stateMutability": "nonpayable",
      "type": "function",
      "signature": "0xa43fd976"
    }
  ],
  "bytecode": "0x60806040526000805534801561001457600080fd5b5061071b806100246000396000f3fe6080604052600436106100615763ffffffff7c010000000000000000000000000000000000000000000000000000000060003504166305bbab1381146100635780634b7ceaa81461008a57806378da7e0814610153578063a43fd97614610204575b005b34801561006f57600080fd5b5061007861022e565b60408051918252519081900360200190f35b34801561009657600080fd5b506100b4600480360360208110156100ad57600080fd5b5035610234565b604051808781526020018681526020018060200185815260200184815260200183151515158152602001828103825286818151815260200191508051906020019080838360005b838110156101135781810151838201526020016100fb565b50505050905090810190601f1680156101405780820380516001836020036101000a031916815260200191505b5097505050505050505060405180910390f35b6100616004803603608081101561016957600080fd5b81019060208101813564010000000081111561018457600080fd5b82018360208201111561019657600080fd5b803590602001918460018302840111640100000000831117156101b857600080fd5b91908080601f016020809104026020016040519081016040528093929190818152602001838380828437600092019190915250929550508235935050506020810135906040013561030d565b34801561021057600080fd5b506100616004803603602081101561022757600080fd5b503561047e565b60005481565b6001602052806000526040600020600091509050806000015490806001015490806002018054600181600116156101000203166002900480601f0160208091040260200160405190810160405280929190818152602001828054600181600116156101000203166002900480156102ec5780601f106102c1576101008083540402835291602001916102ec565b820191906000526020600020905b8154815290600101906020018083116102cf57829003601f168201915b50505050600383015460048401546005909401549293909290915060ff1686565b6000805460019081018083556040805160c08101825282815260208082018981528284018b8152606084018a90526080840189905260a0840188905294875285825292909520815181559151938201939093559051805192939192610378926002850192019061061b565b50606082015181600301556080820151816004015560a08201518160050160006101000a81548160ff0219169083151502179055509050507feb56c786b5b6e514f5c50bde0c0be7aaa0804a681bc0c80191c544c459ad7ebd600054848685856000604051808781526020018681526020018060200185815260200184815260200183151515158152602001828103825286818151815260200191508051906020019080838360005b83811015610439578181015183820152602001610421565b50505050905090810190601f1680156104665780820380516001836020036101000a031916815260200191505b5097505050505050505060405180910390a150505050565b610486610699565b600082815260016020818152604092839020835160c0810185528154815281840154818401526002808301805487519681161561010002600019011691909104601f8101859004850286018501875280865291959294928601939091908301828280156105345780601f1061050957610100808354040283529160200191610534565b820191906000526020600020905b81548152906001019060200180831161051757829003601f168201915b50505091835250506003820154602080830191909152600483015460408084019190915260059093015460ff161515606090920191909152600160a08401819052600086815281835283902084518155848301519181019190915591830151805193945084936105aa926002850192019061061b565b50606082015160038201556080820151600482015560a0918201516005909101805460ff191691151591909117905581015160408051848152911515602083015280517fefc1e6e6bfe4afeb370dfb8d7c095055ad8a4e98b4ee0e629a464ef1a8bf7f1e9281900390910190a15050565b828054600181600116156101000203166002900490600052602060002090601f016020900481019282601f1061065c57805160ff1916838001178555610689565b82800160010185558215610689579182015b8281111561068957825182559160200191906001019061066e565b506106959291506106d2565b5090565b60c06040519081016040528060008152602001600081526020016060815260200160008152602001600081526020016000151581525090565b6106ec91905b8082111561069557600081556001016106d8565b9056fea165627a7a72305820bc0c220cd12a73c17e37eb9978d703d3d4a01cd1d15fc39c1d003fb2f6b8b9f30029",
  "source": "pragma solidity ^0.5.0;\n\ncontract Willdo {\n    // Chore count... very naiive ID for the time being\n    uint public choreCount = 0;\n\n    // Chore object - the crux of what each person will do\n    struct Chore {\n        uint id; // UID of each chore\n        uint price; // How much you're willing to risk on completing this chore\n        string content; // The chore to complete\n        // uint daysToComplete; // Days to complete the chore\n        //address approver; // The person responsible for approving the Chore was actually completed\n        uint startTime;\n        uint endTime;\n        bool completed; // Whether or not the chore is completed\n    }\n\n    event ChoreCreated(\n        uint id,\n        uint price,\n        string content,\n        // uint daysToComplete,\n        uint startTime,\n        uint endTime,\n        bool completed\n    );\n\n    event ChoreCompleted(\n        uint id,\n        bool completed\n    );\n\n    // List of chores by ID\n    mapping(uint => Chore) public chores;\n\n    // TODO eventually update memory with an implementation of IPFS so we aren't storing all this on the blockchain\n    // TODO add the capability to attach eth to the transaction to hold yourself accountable\n    // Create a new chore object and timelock the money\n    // TODO re-add _approver if we want to have a beneficiary, but for now we're just going self-motivated\n    function createChore(string memory _content, uint _chorePrice, uint _startTime, uint _endTime) public payable {\n\n        // Increase ID\n        choreCount ++;\n\n        // Create and emit the Chore object\n        chores[choreCount] = Chore(\n            choreCount,\n            _chorePrice,\n            _content,\n            _startTime,\n            _endTime,\n            false\n        );\n        emit ChoreCreated(choreCount, _chorePrice, _content, _startTime, _endTime, false);\n\n        // TODO timelock the Ether\n    }\n\n    // Complete the chore\n    function completeChore(uint _id) public {\n        Chore memory _chore = chores[_id];\n\n        // TODO implement a check for a third party to say that the chore is completed\n\n        _chore.completed = true;\n        chores[_id] = _chore;\n        emit ChoreCompleted(_id, _chore.completed);\n\n        // TODO get the eth from the timelock and return it to the user\n    }\n\n    function () external payable {}\n}",
  "sourcePath": "/Users/carter/Documents/code/willdo/contracts/Willdo.sol",
  "compiler": {
    "name": "solc",
    "version": "0.5.0+commit.1d4f565a.Emscripten.clang"
  },
  "schemaVersion": "3.0.1",
  "updatedAt": "2020-02-06T03:50:38.367Z",
  "devdoc": {
    "methods": {}
  },
  "userdoc": {
    "methods": {}
  }
}