{
  "contractName": "Willdo",
  "abi": [
    {
      "constant": true,
      "inputs": [],
      "name": "choreCount",
      "outputs": [
        {
          "name": "",
          "type": "uint256"
        }
      ],
      "payable": false,
      "stateMutability": "view",
      "type": "function",
      "signature": "0x05bbab13"
    },
    {
      "constant": true,
      "inputs": [
        {
          "name": "",
          "type": "uint256"
        }
      ],
      "name": "chores",
      "outputs": [
        {
          "name": "id",
          "type": "uint256"
        },
        {
          "name": "price",
          "type": "uint256"
        },
        {
          "name": "content",
          "type": "string"
        },
        {
          "name": "startTime",
          "type": "uint256"
        },
        {
          "name": "endTime",
          "type": "uint256"
        },
        {
          "name": "completed",
          "type": "bool"
        }
      ],
      "payable": false,
      "stateMutability": "view",
      "type": "function",
      "signature": "0x4b7ceaa8"
    },
    {
      "payable": true,
      "stateMutability": "payable",
      "type": "fallback"
    },
    {
      "anonymous": false,
      "inputs": [
        {
          "indexed": false,
          "name": "id",
          "type": "uint256"
        },
        {
          "indexed": false,
          "name": "price",
          "type": "uint256"
        },
        {
          "indexed": false,
          "name": "content",
          "type": "string"
        },
        {
          "indexed": false,
          "name": "startTime",
          "type": "uint256"
        },
        {
          "indexed": false,
          "name": "endTime",
          "type": "uint256"
        },
        {
          "indexed": false,
          "name": "completed",
          "type": "bool"
        }
      ],
      "name": "ChoreCreated",
      "type": "event",
      "signature": "0xeb56c786b5b6e514f5c50bde0c0be7aaa0804a681bc0c80191c544c459ad7ebd"
    },
    {
      "anonymous": false,
      "inputs": [
        {
          "indexed": false,
          "name": "id",
          "type": "uint256"
        },
        {
          "indexed": false,
          "name": "completed",
          "type": "bool"
        }
      ],
      "name": "ChoreCompleted",
      "type": "event",
      "signature": "0xefc1e6e6bfe4afeb370dfb8d7c095055ad8a4e98b4ee0e629a464ef1a8bf7f1e"
    },
    {
      "constant": false,
      "inputs": [
        {
          "name": "_ethToSend",
          "type": "uint256"
        },
        {
          "name": "_charity",
          "type": "address"
        }
      ],
      "name": "sendToCharity",
      "outputs": [],
      "payable": true,
      "stateMutability": "payable",
      "type": "function",
      "signature": "0xcecb0a4e"
    },
    {
      "constant": false,
      "inputs": [
        {
          "name": "_content",
          "type": "string"
        },
        {
          "name": "_chorePrice",
          "type": "uint256"
        },
        {
          "name": "_startTime",
          "type": "uint256"
        },
        {
          "name": "_endTime",
          "type": "uint256"
        }
      ],
      "name": "createChore",
      "outputs": [],
      "payable": true,
      "stateMutability": "payable",
      "type": "function",
      "signature": "0x78da7e08"
    },
    {
      "constant": false,
      "inputs": [
        {
          "name": "_id",
          "type": "uint256"
        }
      ],
      "name": "completeChore",
      "outputs": [],
      "payable": false,
      "stateMutability": "nonpayable",
      "type": "function",
      "signature": "0xa43fd976"
    }
  ],
  "bytecode": "0x60806040526000805534801561001457600080fd5b506107a7806100246000396000f3fe60806040526004361061006c5763ffffffff7c010000000000000000000000000000000000000000000000000000000060003504166305bbab13811461006e5780634b7ceaa81461009557806378da7e081461015e578063a43fd9761461020f578063cecb0a4e14610239575b005b34801561007a57600080fd5b50610083610272565b60408051918252519081900360200190f35b3480156100a157600080fd5b506100bf600480360360208110156100b857600080fd5b5035610278565b604051808781526020018681526020018060200185815260200184815260200183151515158152602001828103825286818151815260200191508051906020019080838360005b8381101561011e578181015183820152602001610106565b50505050905090810190601f16801561014b5780820380516001836020036101000a031916815260200191505b5097505050505050505060405180910390f35b61006c6004803603608081101561017457600080fd5b81019060208101813564010000000081111561018f57600080fd5b8201836020820111156101a157600080fd5b803590602001918460018302840111640100000000831117156101c357600080fd5b91908080601f0160208091040260200160405190810160405280939291908181526020018383808284376000920191909152509295505082359350505060208101359060400135610351565b34801561021b57600080fd5b5061006c6004803603602081101561023257600080fd5b50356104c2565b61006c6004803603604081101561024f57600080fd5b508035906020013573ffffffffffffffffffffffffffffffffffffffff1661065f565b60005481565b6001602052806000526040600020600091509050806000015490806001015490806002018054600181600116156101000203166002900480601f0160208091040260200160405190810160405280929190818152602001828054600181600116156101000203166002900480156103305780601f1061030557610100808354040283529160200191610330565b820191906000526020600020905b81548152906001019060200180831161031357829003601f168201915b50505050600383015460048401546005909401549293909290915060ff1686565b6000805460019081018083556040805160c08101825282815260208082018981528284018b8152606084018a90526080840189905260a08401889052948752858252929095208151815591519382019390935590518051929391926103bc92600285019201906106a7565b50606082015181600301556080820151816004015560a08201518160050160006101000a81548160ff0219169083151502179055509050507feb56c786b5b6e514f5c50bde0c0be7aaa0804a681bc0c80191c544c459ad7ebd600054848685856000604051808781526020018681526020018060200185815260200184815260200183151515158152602001828103825286818151815260200191508051906020019080838360005b8381101561047d578181015183820152602001610465565b50505050905090810190601f1680156104aa5780820380516001836020036101000a031916815260200191505b5097505050505050505060405180910390a150505050565b6104ca610725565b600082815260016020818152604092839020835160c0810185528154815281840154818401526002808301805487519681161561010002600019011691909104601f8101859004850286018501875280865291959294928601939091908301828280156105785780601f1061054d57610100808354040283529160200191610578565b820191906000526020600020905b81548152906001019060200180831161055b57829003601f168201915b50505091835250506003820154602080830191909152600483015460408084019190915260059093015460ff161515606090920191909152600160a08401819052600086815281835283902084518155848301519181019190915591830151805193945084936105ee92600285019201906106a7565b50606082015160038201556080820151600482015560a0918201516005909101805460ff191691151591909117905581015160408051848152911515602083015280517fefc1e6e6bfe4afeb370dfb8d7c095055ad8a4e98b4ee0e629a464ef1a8bf7f1e9281900390910190a15050565b60405173ffffffffffffffffffffffffffffffffffffffff82169083156108fc029084906000818181858888f193505050501580156106a2573d6000803e3d6000fd5b505050565b828054600181600116156101000203166002900490600052602060002090601f016020900481019282601f106106e857805160ff1916838001178555610715565b82800160010185558215610715579182015b828111156107155782518255916020019190600101906106fa565b5061072192915061075e565b5090565b60c06040519081016040528060008152602001600081526020016060815260200160008152602001600081526020016000151581525090565b61077891905b808211156107215760008155600101610764565b9056fea165627a7a7230582039118a51d347460a05aec6be9260956f7e065c09017c9cb47c1b1665fbf2089a0029",
  "source": "pragma solidity ^0.5.0;\n\ncontract Willdo {\n    // Chore count... very naiive ID for the time being\n    uint public choreCount = 0;\n\n    // Chore object - the crux of what each person will do\n    struct Chore {\n        uint id; // UID of each chore\n        uint price; // How much you're willing to risk on completing this chore\n        string content; // The chore to complete\n        uint startTime;\n        uint endTime;\n        bool completed; // Whether or not the chore is completed\n    }\n\n    event ChoreCreated(\n        uint id,\n        uint price,\n        string content,\n        // uint daysToComplete,\n        uint startTime,\n        uint endTime,\n        bool completed\n    );\n\n    event ChoreCompleted(\n        uint id,\n        bool completed\n    );\n\n    // List of chores by ID\n    mapping(uint => Chore) public chores;\n\n    // Transfers the appropriate amount of money to the charity we're currently donating to\n    function sendToCharity(uint _ethToSend, address payable _charity) public payable {\n        // address.send(ethToSend);\n        // charity.call.value(ethToSend)();\n        _charity.transfer(_ethToSend);\n    }\n\n    // TODO eventually update memory with an implementation of IPFS so we aren't storing all this on the blockchain\n    // TODO add the capability to attach eth to the transaction to hold yourself accountable\n    // Create a new chore object and timelock the money\n    // TODO re-add _approver if we want to have a beneficiary, but for now we're just going self-motivated\n    function createChore(string memory _content, uint _chorePrice, uint _startTime, uint _endTime) public payable {\n\n        // Increase ID\n        choreCount ++;\n\n        // Create and emit the Chore object\n        chores[choreCount] = Chore(\n            choreCount,\n            _chorePrice,\n            _content,\n            _startTime,\n            _endTime,\n            false\n        );\n        emit ChoreCreated(choreCount, _chorePrice, _content, _startTime, _endTime, false);\n\n        // TODO timelock the Ether\n    }\n\n    // Complete the chore\n    function completeChore(uint _id) public {\n        Chore memory _chore = chores[_id];\n\n        // TODO implement a check for a third party to say that the chore is completed\n\n        _chore.completed = true;\n        chores[_id] = _chore;\n        emit ChoreCompleted(_id, _chore.completed);\n\n        // TODO get the eth from the timelock and return it to the user\n    }\n\n    function () external payable {}\n}",
  "sourcePath": "/Users/carter/Documents/code/willdo/contracts/Willdo.sol",
  "compiler": {
    "name": "solc",
    "version": "0.5.0+commit.1d4f565a.Emscripten.clang"
  },
  "schemaVersion": "3.0.1",
  "updatedAt": "2020-02-07T03:22:23.255Z",
  "devdoc": {
    "methods": {}
  },
  "userdoc": {
    "methods": {}
  }
}