{
  "contractName": "Willdo",
  "abi": [
    {
      "constant": true,
      "inputs": [],
      "name": "choreCount",
      "outputs": [
        {
          "name": "",
          "type": "uint256"
        }
      ],
      "payable": false,
      "stateMutability": "view",
      "type": "function",
      "signature": "0x05bbab13"
    },
    {
      "constant": true,
      "inputs": [
        {
          "name": "",
          "type": "uint256"
        }
      ],
      "name": "chores",
      "outputs": [
        {
          "name": "id",
          "type": "uint256"
        },
        {
          "name": "price",
          "type": "uint256"
        },
        {
          "name": "content",
          "type": "string"
        },
        {
          "name": "startTime",
          "type": "uint256"
        },
        {
          "name": "endTime",
          "type": "uint256"
        },
        {
          "name": "completed",
          "type": "bool"
        }
      ],
      "payable": false,
      "stateMutability": "view",
      "type": "function",
      "signature": "0x4b7ceaa8"
    },
    {
      "payable": true,
      "stateMutability": "payable",
      "type": "fallback"
    },
    {
      "anonymous": false,
      "inputs": [
        {
          "indexed": false,
          "name": "id",
          "type": "uint256"
        },
        {
          "indexed": false,
          "name": "price",
          "type": "uint256"
        },
        {
          "indexed": false,
          "name": "content",
          "type": "string"
        },
        {
          "indexed": false,
          "name": "startTime",
          "type": "uint256"
        },
        {
          "indexed": false,
          "name": "endTime",
          "type": "uint256"
        },
        {
          "indexed": false,
          "name": "completed",
          "type": "bool"
        }
      ],
      "name": "ChoreCreated",
      "type": "event",
      "signature": "0xeb56c786b5b6e514f5c50bde0c0be7aaa0804a681bc0c80191c544c459ad7ebd"
    },
    {
      "anonymous": false,
      "inputs": [
        {
          "indexed": false,
          "name": "id",
          "type": "uint256"
        },
        {
          "indexed": false,
          "name": "completed",
          "type": "bool"
        }
      ],
      "name": "ChoreCompleted",
      "type": "event",
      "signature": "0xefc1e6e6bfe4afeb370dfb8d7c095055ad8a4e98b4ee0e629a464ef1a8bf7f1e"
    },
    {
      "anonymous": false,
      "inputs": [
        {
          "indexed": false,
          "name": "amount",
          "type": "uint256"
        },
        {
          "indexed": false,
          "name": "_charity",
          "type": "address"
        }
      ],
      "name": "SentToCharity",
      "type": "event",
      "signature": "0x906d98fe4904e57aa9e4d69f419faf81000b7516287817f46559e1998a498db4"
    },
    {
      "anonymous": false,
      "inputs": [
        {
          "indexed": false,
          "name": "amount",
          "type": "uint256"
        }
      ],
      "name": "ReturnedToUser",
      "type": "event",
      "signature": "0x7feff296cbd20f984aef52da9de288f71ac42fee06eefbcab6188b3bbb3828d8"
    },
    {
      "constant": false,
      "inputs": [
        {
          "name": "amount",
          "type": "uint256"
        },
        {
          "name": "_charity",
          "type": "address"
        }
      ],
      "name": "sendToCharity",
      "outputs": [],
      "payable": true,
      "stateMutability": "payable",
      "type": "function",
      "signature": "0xcecb0a4e"
    },
    {
      "constant": false,
      "inputs": [
        {
          "name": "amount",
          "type": "uint256"
        }
      ],
      "name": "returnToUser",
      "outputs": [],
      "payable": true,
      "stateMutability": "payable",
      "type": "function",
      "signature": "0x456c2235"
    },
    {
      "constant": false,
      "inputs": [
        {
          "name": "_content",
          "type": "string"
        },
        {
          "name": "_chorePrice",
          "type": "uint256"
        },
        {
          "name": "_startTime",
          "type": "uint256"
        },
        {
          "name": "_endTime",
          "type": "uint256"
        }
      ],
      "name": "createChore",
      "outputs": [],
      "payable": true,
      "stateMutability": "payable",
      "type": "function",
      "signature": "0x78da7e08"
    },
    {
      "constant": false,
      "inputs": [
        {
          "name": "_id",
          "type": "uint256"
        }
      ],
      "name": "completeChore",
      "outputs": [],
      "payable": false,
      "stateMutability": "nonpayable",
      "type": "function",
      "signature": "0xa43fd976"
    }
  ],
  "bytecode": "0x60806040526000805534801561001457600080fd5b50610883806100246000396000f3fe6080604052600436106100775763ffffffff7c010000000000000000000000000000000000000000000000000000000060003504166305bbab138114610079578063456c2235146100a05780634b7ceaa8146100bd57806378da7e0814610186578063a43fd97614610237578063cecb0a4e14610261575b005b34801561008557600080fd5b5061008e61029a565b60408051918252519081900360200190f35b610077600480360360208110156100b657600080fd5b50356102a0565b3480156100c957600080fd5b506100e7600480360360208110156100e057600080fd5b5035610304565b604051808781526020018681526020018060200185815260200184815260200183151515158152602001828103825286818151815260200191508051906020019080838360005b8381101561014657818101518382015260200161012e565b50505050905090810190601f1680156101735780820380516001836020036101000a031916815260200191505b5097505050505050505060405180910390f35b6100776004803603608081101561019c57600080fd5b8101906020810181356401000000008111156101b757600080fd5b8201836020820111156101c957600080fd5b803590602001918460018302840111640100000000831117156101eb57600080fd5b91908080601f01602080910402602001604051908101604052809392919081815260200183838082843760009201919091525092955050823593505050602081013590604001356103dd565b34801561024357600080fd5b506100776004803603602081101561025a57600080fd5b503561054e565b6100776004803603604081101561027757600080fd5b508035906020013573ffffffffffffffffffffffffffffffffffffffff166106eb565b60005481565b604051339082156108fc029083906000818181858888f193505050501580156102cd573d6000803e3d6000fd5b506040805182815290517f7feff296cbd20f984aef52da9de288f71ac42fee06eefbcab6188b3bbb3828d89181900360200190a150565b6001602052806000526040600020600091509050806000015490806001015490806002018054600181600116156101000203166002900480601f0160208091040260200160405190810160405280929190818152602001828054600181600116156101000203166002900480156103bc5780601f10610391576101008083540402835291602001916103bc565b820191906000526020600020905b81548152906001019060200180831161039f57829003601f168201915b50505050600383015460048401546005909401549293909290915060ff1686565b6000805460019081018083556040805160c08101825282815260208082018981528284018b8152606084018a90526080840189905260a08401889052948752858252929095208151815591519382019390935590518051929391926104489260028501920190610783565b50606082015181600301556080820151816004015560a08201518160050160006101000a81548160ff0219169083151502179055509050507feb56c786b5b6e514f5c50bde0c0be7aaa0804a681bc0c80191c544c459ad7ebd600054848685856000604051808781526020018681526020018060200185815260200184815260200183151515158152602001828103825286818151815260200191508051906020019080838360005b838110156105095781810151838201526020016104f1565b50505050905090810190601f1680156105365780820380516001836020036101000a031916815260200191505b5097505050505050505060405180910390a150505050565b610556610801565b600082815260016020818152604092839020835160c0810185528154815281840154818401526002808301805487519681161561010002600019011691909104601f8101859004850286018501875280865291959294928601939091908301828280156106045780601f106105d957610100808354040283529160200191610604565b820191906000526020600020905b8154815290600101906020018083116105e757829003601f168201915b50505091835250506003820154602080830191909152600483015460408084019190915260059093015460ff161515606090920191909152600160a084018190526000868152818352839020845181558483015191810191909155918301518051939450849361067a9260028501920190610783565b50606082015160038201556080820151600482015560a0918201516005909101805460ff191691151591909117905581015160408051848152911515602083015280517fefc1e6e6bfe4afeb370dfb8d7c095055ad8a4e98b4ee0e629a464ef1a8bf7f1e9281900390910190a15050565b60405173ffffffffffffffffffffffffffffffffffffffff82169083156108fc029084906000818181858888f1935050505015801561072e573d6000803e3d6000fd5b506040805183815273ffffffffffffffffffffffffffffffffffffffff8316602082015281517f906d98fe4904e57aa9e4d69f419faf81000b7516287817f46559e1998a498db4929181900390910190a15050565b828054600181600116156101000203166002900490600052602060002090601f016020900481019282601f106107c457805160ff19168380011785556107f1565b828001600101855582156107f1579182015b828111156107f15782518255916020019190600101906107d6565b506107fd92915061083a565b5090565b60c06040519081016040528060008152602001600081526020016060815260200160008152602001600081526020016000151581525090565b61085491905b808211156107fd5760008155600101610840565b9056fea165627a7a7230582084dad6620728fc1cc55a19eed4bb7a3d010847c784d98f93a9af5cfabed4bd400029",
  "source": "pragma solidity ^0.5.0;\n\ncontract Willdo {\n    // Chore count... very naiive ID for the time being\n    uint public choreCount = 0;\n\n    // Chore object - the crux of what each person will do\n    struct Chore {\n        uint id; // UID of each chore\n        uint price; // How much you're willing to risk on completing this chore\n        string content; // The chore to complete\n        uint startTime;\n        uint endTime;\n        bool completed; // Whether or not the chore is completed\n    }\n\n    event ChoreCreated(\n        uint id,\n        uint price,\n        string content,\n        // uint daysToComplete,\n        uint startTime,\n        uint endTime,\n        bool completed\n    );\n\n    event ChoreCompleted(\n        uint id,\n        bool completed\n    );\n\n    event SentToCharity(\n        uint amount,\n        address payable _charity\n    );\n\n    event ReturnedToUser(\n        uint amount\n    );\n\n    // List of chores by ID\n    mapping(uint => Chore) public chores;\n\n    // Transfers the appropriate amount of money to the charity we're currently donating to\n    function sendToCharity(uint amount, address payable _charity) external payable {\n        _charity.transfer(amount);\n        emit SentToCharity(amount, _charity);\n    }\n\n    // TODO test to see if changing this to public will make a difference, but I feel like we want this external anyway\n    // TODO test to see if we actually need this 1 ether thing or if I was just being a dumbass before\n    function returnToUser(uint amount) external payable {\n        msg.sender.transfer(amount);\n        emit ReturnedToUser(amount);\n    }\n\n    // TODO eventually update memory with an implementation of IPFS so we aren't storing all this on the blockchain\n    // TODO add the capability to attach eth to the transaction to hold yourself accountable\n    // Create a new chore object and timelock the money\n    // TODO re-add _approver if we want to have a beneficiary, but for now we're just going self-motivated\n    function createChore(string memory _content, uint _chorePrice, uint _startTime, uint _endTime) public payable {\n\n        // Increase ID\n        choreCount ++;\n\n        // Create and emit the Chore object\n        chores[choreCount] = Chore(\n            choreCount,\n            _chorePrice,\n            _content,\n            _startTime,\n            _endTime,\n            false\n        );\n        emit ChoreCreated(choreCount, _chorePrice, _content, _startTime, _endTime, false);\n\n        // TODO timelock the Ether\n    }\n\n    // Complete the chore\n    function completeChore(uint _id) public {\n        Chore memory _chore = chores[_id];\n\n        // TODO implement a check for a third party to say that the chore is completed\n\n        _chore.completed = true;\n        chores[_id] = _chore;\n        emit ChoreCompleted(_id, _chore.completed);\n\n        // TODO get the eth from the timelock and return it to the user\n    }\n\n    function () external payable {}\n}",
  "sourcePath": "/Users/carter/Documents/code/willdo/contracts/Willdo.sol",
  "compiler": {
    "name": "solc",
    "version": "0.5.0+commit.1d4f565a.Emscripten.clang"
  },
  "schemaVersion": "3.0.1",
  "updatedAt": "2020-02-10T02:04:05.776Z",
  "devdoc": {
    "methods": {}
  },
  "userdoc": {
    "methods": {}
  }
}