{
  "contractName": "Willdo",
  "abi": [
    {
      "constant": true,
      "inputs": [],
      "name": "choreCount",
      "outputs": [
        {
          "name": "",
          "type": "uint256"
        }
      ],
      "payable": false,
      "stateMutability": "view",
      "type": "function",
      "signature": "0x05bbab13"
    },
    {
      "constant": true,
      "inputs": [
        {
          "name": "",
          "type": "uint256"
        }
      ],
      "name": "chores",
      "outputs": [
        {
          "name": "id",
          "type": "uint256"
        },
        {
          "name": "price",
          "type": "uint256"
        },
        {
          "name": "content",
          "type": "string"
        },
        {
          "name": "daysToComplete",
          "type": "uint256"
        },
        {
          "name": "approver",
          "type": "address"
        },
        {
          "name": "completed",
          "type": "bool"
        }
      ],
      "payable": false,
      "stateMutability": "view",
      "type": "function",
      "signature": "0x4b7ceaa8"
    },
    {
      "payable": true,
      "stateMutability": "payable",
      "type": "fallback"
    },
    {
      "anonymous": false,
      "inputs": [
        {
          "indexed": false,
          "name": "id",
          "type": "uint256"
        },
        {
          "indexed": false,
          "name": "price",
          "type": "uint256"
        },
        {
          "indexed": false,
          "name": "content",
          "type": "string"
        },
        {
          "indexed": false,
          "name": "daysToComplete",
          "type": "uint256"
        },
        {
          "indexed": false,
          "name": "approver",
          "type": "address"
        },
        {
          "indexed": false,
          "name": "completed",
          "type": "bool"
        }
      ],
      "name": "ChoreCreated",
      "type": "event",
      "signature": "0x3c8562cb835c285520e2da1472b7f7424b625b1b3e5434c9c675c47234686261"
    },
    {
      "anonymous": false,
      "inputs": [
        {
          "indexed": false,
          "name": "id",
          "type": "uint256"
        },
        {
          "indexed": false,
          "name": "completed",
          "type": "bool"
        },
        {
          "indexed": false,
          "name": "approver",
          "type": "address"
        }
      ],
      "name": "ChoreCompleted",
      "type": "event",
      "signature": "0xd76f871249bdd1be44ba93eb80e022468665d03d218e02e14681326a21ffd211"
    },
    {
      "constant": false,
      "inputs": [
        {
          "name": "_content",
          "type": "string"
        },
        {
          "name": "_chorePrice",
          "type": "uint256"
        },
        {
          "name": "daysToComplete",
          "type": "uint256"
        },
        {
          "name": "_approver",
          "type": "address"
        }
      ],
      "name": "createChore",
      "outputs": [],
      "payable": true,
      "stateMutability": "payable",
      "type": "function",
      "signature": "0xb5a4d059"
    },
    {
      "constant": false,
      "inputs": [
        {
          "name": "_id",
          "type": "uint256"
        }
      ],
      "name": "completeChore",
      "outputs": [],
      "payable": false,
      "stateMutability": "nonpayable",
      "type": "function",
      "signature": "0xa43fd976"
    }
  ],
  "bytecode": "0x60806040526000805534801561001457600080fd5b50610827806100246000396000f3fe6080604052600436106100615763ffffffff7c010000000000000000000000000000000000000000000000000000000060003504166305bbab1381146100635780634b7ceaa81461008a578063a43fd97614610165578063b5a4d0591461018f575b005b34801561006f57600080fd5b50610078610249565b60408051918252519081900360200190f35b34801561009657600080fd5b506100b4600480360360208110156100ad57600080fd5b503561024f565b604051808781526020018681526020018060200185815260200184600160a060020a0316600160a060020a0316815260200183151515158152602001828103825286818151815260200191508051906020019080838360005b8381101561012557818101518382015260200161010d565b50505050905090810190601f1680156101525780820380516001836020036101000a031916815260200191505b5097505050505050505060405180910390f35b34801561017157600080fd5b506100616004803603602081101561018857600080fd5b5035610343565b610061600480360360808110156101a557600080fd5b8101906020810181356401000000008111156101c057600080fd5b8201836020820111156101d257600080fd5b803590602001918460018302840111640100000000831117156101f457600080fd5b91908080601f0160208091040260200160405190810160405280939291908181526020018383808284376000920191909152509295505082359350505060208101359060400135600160a060020a031661055a565b60005481565b6001602052806000526040600020600091509050806000015490806001015490806002018054600181600116156101000203166002900480601f0160208091040260200160405190810160405280929190818152602001828054600181600116156101000203166002900480156103075780601f106102dc57610100808354040283529160200191610307565b820191906000526020600020905b8154815290600101906020018083116102ea57829003601f168201915b505050506003830154600490930154919291600160a060020a038116915074010000000000000000000000000000000000000000900460ff1686565b61034b61071e565b600082815260016020818152604092839020835160c0810185528154815281840154818401526002808301805487519681161561010002600019011691909104601f8101859004850286018501875280865291959294928601939091908301828280156103f95780601f106103ce576101008083540402835291602001916103f9565b820191906000526020600020905b8154815290600101906020018083116103dc57829003601f168201915b50505091835250506003820154602080830191909152600490920154600160a060020a0381166040808401919091527401000000000000000000000000000000000000000090910460ff161515606090920191909152600160a0840181905260008681528184528290208451815584840151918101919091559083015180519394508493919261049192600285019290910190610760565b5060608281015160038301556080808401516004909301805460a09586015173ffffffffffffffffffffffffffffffffffffffff19909116600160a060020a039586161774ff000000000000000000000000000000000000000019167401000000000000000000000000000000000000000091151591909102179055928401519284015160408051878152941515602086015292168383015290517fd76f871249bdd1be44ba93eb80e022468665d03d218e02e14681326a21ffd2119281900390910190a15050565b6000805460019081018083556040805160c08101825282815260208082018981528284018b8152606084018a9052600160a060020a038916608085015260a08401889052948752858252929095208151815591519382019390935590518051929391926105cd9260028501920190610760565b5060608281015160038301556080808401516004909301805460a09586015173ffffffffffffffffffffffffffffffffffffffff19909116600160a060020a039586161774ff000000000000000000000000000000000000000019167401000000000000000000000000000000000000000091151591909102179055600080546040805182815260208082018c90529581018a90529588169386019390935294840181905260c091840182815289519285019290925288517f3c8562cb835c285520e2da1472b7f7424b625b1b3e5434c9c675c47234686261959489948b948a948a9490939260e084019190880190808383885b838110156106d95781810151838201526020016106c1565b50505050905090810190601f1680156107065780820380516001836020036101000a031916815260200191505b5097505050505050505060405180910390a150505050565b60c060405190810160405280600081526020016000815260200160608152602001600081526020016000600160a060020a031681526020016000151581525090565b828054600181600116156101000203166002900490600052602060002090601f016020900481019282601f106107a157805160ff19168380011785556107ce565b828001600101855582156107ce579182015b828111156107ce5782518255916020019190600101906107b3565b506107da9291506107de565b5090565b6107f891905b808211156107da57600081556001016107e4565b9056fea165627a7a723058200366a5c59f7854f076c33c7a9b06ff7738ab4ffe3a8fdff9add61685a9e630270029",
  "source": "pragma solidity ^0.5.0;\n\ncontract Willdo {\n    // Chore count... very naiive ID for the time being\n    uint public choreCount = 0;\n\n    // Chore object - the crux of what each person will do\n    struct Chore {\n        uint id; // UID of each chore\n        uint price; // How much you're willing to risk on completing this chore\n        string content; // The chore to complete\n        uint daysToComplete; // Days to complete the chore\n        address approver; // The person responsible for approving the Chore was actually completed\n        bool completed; // Whether or not the chore is completed\n    }\n\n    event ChoreCreated(\n        uint id,\n        uint price,\n        string content,\n        uint daysToComplete,\n        address approver,\n        bool completed\n    );\n\n    event ChoreCompleted(\n        uint id,\n        bool completed,\n        address approver\n    );\n\n    // List of chores by ID\n    mapping(uint => Chore) public chores;\n\n    // TODO eventually update memory with an implementation of IPFS so we aren't storing all this on the blockchain\n    // TODO add the capability to attach eth to the transaction to hold yourself accountable\n    // Create a new chore object and timelock the money\n    function createChore(string memory _content, uint _chorePrice, uint daysToComplete, address _approver) public payable {\n\n        // Increase ID\n        choreCount ++;\n\n        // Create and emit the Chore object\n        chores[choreCount] = Chore(\n            choreCount,\n            _chorePrice,\n            _content,\n            daysToComplete,\n            _approver,\n            false\n        );\n        emit ChoreCreated(choreCount, _chorePrice, _content, daysToComplete, _approver, false);\n\n        // TODO timelock the Ether\n    }\n\n    // Complete the chore\n    function completeChore(uint _id) public {\n        Chore memory _chore = chores[_id];\n\n        // TODO implement a check for a third party to say that the chore is completed\n\n        _chore.completed = true;\n        chores[_id] = _chore;\n        emit ChoreCompleted(_id, _chore.completed, _chore.approver);\n\n        // TODO get the eth from the timelock and return it to the user\n    }\n\n    function () external payable {}\n}",
  "sourcePath": "/Users/carter/Documents/code/willdo/contracts/Willdo.sol",
  "compiler": {
    "name": "solc",
    "version": "0.5.0+commit.1d4f565a.Emscripten.clang"
  },
  "schemaVersion": "3.0.1",
  "updatedAt": "2020-02-04T03:21:29.574Z",
  "devdoc": {
    "methods": {}
  },
  "userdoc": {
    "methods": {}
  }
}